:020000040800F2
:1000000088050020010100086B150008A1140008F4
:1000100069150008650100081D1B000800000000AC
:100020000000000000000000000000008F15000824
:10003000AB010008000000008D15000891150008B4
:100040001B0100081B0100081B0100081B01000820
:100050001B0100081B0100081B0100081B01000810
:100060001B0100081B0100081B0100081B01000800
:100070001B0100081B010008690100087501000848
:100080001B0100081B0100081B0100081B010008E0
:100090001B0100081B0100081B0100081B010008D0
:1000A0001B010008511600081B0100081B01000875
:1000B0001B0100081B0100081B0100081B010008B0
:1000C0001B0100081B0100081B0100081B010008A0
:1000D0001B010008D11A00081B0100081B010008C1
:1000E0001B0100081B0100081B010008DFF80CD0F1
:1000F00000F026F800480047891B0008880500200A
:100100000648804706480047FEE7FEE7FEE7FEE7B1
:10011000FEE7FEE7FEE7FEE7FEE7FEE7091600085A
:10012000ED00000810B5002200E0521C835C8C5CDE
:10013000A34201D1002BF8D1D8B2E1B2401A10BDD0
:10014000064C074D06E0E06840F0010394E8070024
:1001500098471034AC42F6D3FFF7CCFF841C00085C
:10016000A41C0008FEE70000014800F083B800006E
:1001700098000020014800F07DB80000DC0000205D
:1001800030B590F840500124AC40C56B6C600468F9
:1001900063604368102B036803D099600068C260F5
:1001A00030BD9A600068C16030BD704701680A6860
:1001B00022F00E020A6001680A6822F001020A6059
:1001C00090F84020C36B012101FA02F25A6080F8D6
:1001D0002110002180F820100846704710B590F8D3
:1001E00021100024022903D00421816301243DE071
:1001F00001680A6822F00E020A6001680A6822F0AB
:1002000001020A601A4A0168914201D1012121E0EC
:10021000174A1432914201D110211BE0144A2832AE
:10022000914201D1891515E0114A3C32914201D128
:1002300089140FE00E4A5032914202D14FF48031BE
:1002400008E00B4A6432914202D14FF4801101E080
:100250004FF08071064A083A5160012180F8211060
:10026000002180F82010416B01B18847204610BD65
:10027000080002402DE9F05FC16B0C6801680B6853
:10028000D0F840C0042202FA0CF2494DDFF824A154
:10029000494E4A4FDFF828B1DFF828E122422CD03E
:1002A0005A072AD50A68920603D40A6822F0040283
:1002B0000A600168A94201D1042219E0514501D127
:1002C000402215E0B14202D14FF4806210E0B94201
:1002D00002D14FF480420BE0594502D14FF4802205
:1002E00006E0714502D14FF4800201E04FF08062D8
:1002F0002F4908394A60C16A3BE04FF0020808FA0A
:100300000CF818EA040F4FF000094FF0010235D045
:100310005FEA837832D50B689B0605D40B6823F01F
:100320000A030B6080F821200168A94201D1022252
:1003300019E0514501D1202215E0B14202D14FF41C
:10034000007210E0B94202D14FF400520BE059455F
:1003500002D14FF4003206E0714502D14FF4001291
:1003600001E04FF00072124908394A6080F820908D
:10037000816A00291AD0BDE8F05F0847082505FA10
:100380000CF5254212D01B0710D50B6823F00E0385
:100390000B6090F84010C36B02FA01F15960826360
:1003A00080F8212080F82090016BE2E7BDE8F09F03
:1003B000080002401C00024030000240440002409D
:1003C000580002406C00024030B548B308C81549D7
:1003D00014221944B1FBF2F18900C163124981630F
:1003E000022141771A6843F6F0718A43D0E900147C
:1003F0002143D0E902452C43214304692143446948
:1004000021438469214311431960002141628162C3
:10041000C16201634163012242770177084630BD22
:10042000012030BDF8FFFDBF0000024070B504465A
:1004300090F82000002501280CD0012084F820002D
:1004400094F821600020012E06D084F820000225B7
:10045000284670BD022070BD022684F82160A0638A
:100460002068066826F0010606602046FFF788FE31
:10047000E06A00282068016802D041F00E0106E021
:1004800021F0040101602068016841F00A01016067
:100490002068016841F001010160D9E72DE9F84FBA
:1004A000DFF890A100220AF1040B144601274FF057
:1004B0000F090BF1040E00BF0B6807FA04F52B407F
:1004C000AB4274D1DFF870C14E68A6EB0C086645EC
:1004D0002BD00DDC032E34D005DC36B3012E19D021
:1004E000022E2FD11BE0112E16D0122E2AD119E088
:1004F000B8F5881F19D006DCB8F5803F15D0B8F5DF
:10050000801F1FD111E0B8F5001F0ED0B8F5041FF1
:1005100018D10AE0CA6815E0CA68121D12E0CA685C
:1005200008320FE0CA680C320CE08A682AB1012A4E
:100530004FF0080203D0456104E0042202E00561A7
:1005400000E00022FF2B01D8064601E000F104067E
:100550004FEA840501D9A5F12005D6F800C009FAB3
:1005600005F82CEA080C02FA05F54CEA050CC6F869
:1005700000C04D68ED0057D5304DAE6946F001061C
:10058000AE61AD6924F0030605F0010500952C4D20
:1005900006EB050CDCF80850A6074FEA167809FAB6
:1005A00008F6B543274EB04202D1002610E03BE0EA
:1005B000254EB04201D101260AE0244EB04201D1BD
:1005C000022605E0224EB04201D1032600E00426B7
:1005D00006FA08F62E43CCF808604D68DAF8006099
:1005E000ED03554601D51E4300E09E432E604D6845
:1005F000DBF80060AD035D4601D51E4300E09E437D
:100600002E604D68DEF80060ED02754601D51E4390
:1006100000E09E432E604D68AD020E4D2E6801D560
:100620001E4300E09E432E60641C102CFFF444AF78
:10063000BDE8F88F000401400000111000100240D6
:100640000000014000080140000C01400010014082
:10065000001401400C040140C2684A40C260704767
:100660000AB1016170470904FBE700000148806896
:10067000704700000400002002488168027811449D
:100680008160704704000020074810B5016841F000
:1006900010010160032000F09DF8002000F006F832
:1006A00000F024F8002010BD0020024070B50D4D70
:1006B00004464FF47A712878B1FBF0F00A490968D2
:1006C000B1FBF0F000F02DFB48B9102C07D200224E
:1006D0002146501E00F05EF800206C6070BD0120C5
:1006E00070BD00000400002010000020214808B563
:1006F000816941F001018161816901F0010100918D
:10070000C16941F08051C161C06900F08050009022
:10071000032000F05FF8002211466FF00B0000F09C
:1007200039F8002211466FF00A0000F033F8002279
:1007300011466FF0090000F02DF800221146501FFD
:1007400000F028F800221146101F00F023F80022C4
:100750001146901E00F01EF800221146501E00F0B7
:1007600019F80548416821F0E06141F000714160ED
:1007700008BD0000001002400000014000F01F0210
:10078000012191404009800000F1E020C0F80011F3
:1007900070470000F0B40E4B1B680C46C3F30223F5
:1007A000C3F10705042D00D90425191D072901D21D
:1007B000002300E0DB1E012606FA05F1491E214058
:1007C00099409E40761E16403143F0BC00F0CEBEEC
:1007D0000CED00E0064900F0070208684FF6FF0341
:1007E000184040EA0220034A1043086070470000A6
:1007F0000CED00E00000FA052DE9F047DFF83C8140
:1008000005460E46D8F8000000F00700B0420CD2B2
:10081000D8F8001021F007013143C8F80010D8F8CB
:10082000000000F00700B04263D12878444C8007F4
:1008300005D56068A96820F0F0000843606028785A
:10084000C00745D06868012816D02168022816D054
:10085000890700294DDA616821F0030101436160D5
:10086000FFF704FF6968074641F2883001290FD07D
:100870000229814619D027E021688903E9E7890127
:10088000E7E700BFFFF7F2FEC11B494501D918E0B9
:1008900081466068C0F381000128F3D118E000BFF1
:1008A000FFF7E4FEC11B49450BD86068C0F3810027
:1008B0000228F5D10CE000BFFFF7D8FEC11B494567
:1008C00002D90320BDE8F087606810F00C0FF3D167
:1008D000D8F80010404601F00701B1420BD9016879
:1008E00021F0070131430160006800F00700B042C9
:1008F00001D00120E6E72878400705D56068E9685F
:1009000020F4E060084360602878000706D560683E
:10091000296920F4605040EAC100606000F03CF8B2
:100920006168084AC1F30311515CC8400649086078
:100930000020FFF7BBFE0020C4E7000000200240BB
:10094000001002406C1C00081000002001480068E4
:1009500070470000100000200448054900684968FD
:10096000044AC1F30221515CC840704710000020C6
:10097000001002407C1C00080448054900684968D2
:10098000044AC1F3C221515CC840704710000020E6
:10099000001002407C1C000812A185B00FC98DE830
:1009A0000F0014A0144A006804905168134801F025
:1009B0000C03042B10D0082B0ED1C1F38343C903C1
:1009C0001DF803000AD5516804AAC1F34041515CE7
:1009D0000A4A5043B0FBF1F005B07047084948435C
:1009E000FAE7000002030405060708090A0B0C0DCC
:1009F0000E0F1010010200000010024000127A00D9
:100A000000093D002DE9F84F04460078B94DC007B4
:100A100048D06868C0F38100012807D06868C0F337
:100A20008100022809D16868C00306D528688003C0
:100A300038D5606800286FD034E06068B0F5803F3A
:100A40000BD010B1B0F5A02F11D0286820F4803061
:100A50002860286820F4802002E0286840F4803074
:100A60002860606888B1FFF701FE064609E0286843
:100A700040F480202860F0E7FFF7F8FD801B642831
:100A800075D828688003F7D50CE0FFF7EFFD064620
:100A900005E000BFFFF7EAFD801B6428F0D8286856
:100AA0008003F7D42078944E80074FF001094FF06F
:100AB00000083BD5686810F00C0F07D06868C0F3D9
:100AC0008100022809D16868C00306D4286880071D
:100AD00014D5206901281FD110E02069B0B1C6F8F3
:100AE0000090FFF7C3FD074605E000BFFFF7BEFD1E
:100AF000C01B0228C4D828688007F7D52868616918
:100B000020F0F80040EAC10028600FE0C6F800803D
:100B1000FFF7ACFD074606E0E9E000BFFFF7A6FDE2
:100B2000C01B022823D828688007F7D42078000744
:100B30002CD57248A169D9B1C0F80090FFF796FD95
:100B4000074604E0FFF792FDC01B02280FD8686A31
:100B50008007F7D56A484FF4FA510068B0FBF1F00E
:100B6000009000BF0098411E0091FAD20EE080E094
:100B7000C0F80080FFF77AFD074604E0FFF776FD36
:100B8000C01B022875D8686A8007F7D42078400710
:100B900060D5E8690027C00008D4E86940F08050BB
:100BA000E861E869012700F080500090554801682D
:100BB000C90513D40168834641F480710160FFF7D1
:100BC00055FD824606E000BFFFF750FDA0EB0A008E
:100BD00064284ED8DBF80000C005F5D5E068012890
:100BE0000AD008B1052813D0286A20F00100286235
:100BF000286A20F0040002E0286A40F00100286220
:100C0000E06841F2883B98B1FFF730FD82460BE087
:100C1000286A40F004002862EEE700BFFFF726FDD7
:100C2000A0EB0A0159455AD8286A8007F6D50CE08E
:100C3000FFF71CFD824605E0FFF718FDA0EB0A0157
:100C400059454CD8286A8007F6D41FB1E86920F0CE
:100C50008050E861E06988B36968C1F381010229C5
:100C600045D00228C6F8608004D0FFF7FFFC044698
:100C700038E034E0FFF7FAFC074604E0FFF7F6FC43
:100C8000C01B02282BD828688001F7D4206AB0F551
:100C9000803F05D16868A16820F40030084368608F
:100CA000D4E908010843696821F4741108436860B5
:100CB000C6F86090FFF7DAFC044606E015E000BFD6
:100CC000FFF7D4FC001B022809D828688001F7D55B
:100CD0000BE000BFFFF7CAFC001B022802D903206B
:100CE000BDE8F88F28688001F4D40020F8E70120DF
:100CF000F6E7000000100240000042428004424239
:100D000010000020007000404FF0E0210428086926
:100D100003D020F004000861704740F00400FAE7B7
:100D2000704710B5401EB0F1807F01D3012010BD87
:100D30004FF0E02460610F21601700F017FC0020E5
:100D4000A06107202061002010BD10B5FFF7E8FF6B
:100D500010BD7047704730B590F83C20012A20D074
:100D6000012280F83C20022380F83D3003685C6853
:100D700024F070045C6003685C680D682C435C6060
:100D800003689C6824F080049C6003689C68496840
:100D90000C439C6080F83D20002180F83C10084600
:100DA00030BD022030BD10B5040003D094F83D00E2
:100DB00010B107E0012010BD002084F83C0020465F
:100DC00000F00CF8022084F83D00211D206800F09E
:100DD00045FC012084F83D00002010BD08B50068E6
:100DE0000B49884212D10B48816941F4006181614D
:100DF0008069002200F40060009011461920FFF77E
:100E0000C9FCBDE808401920FFF7B8BC08BD0000C8
:100E1000002C0140001002400168CA6842F0010243
:100E2000CA600068016841F001010160002070475C
:100E300070B5044690F83C00012817D0012584F8CD
:100E40003C50022084F83D002068826822F077023E
:100E500022F47F4282600868502837D00DDC2028B9
:100E600059D005DC88B3102841D151E0022070BD73
:100E7000302853D040283AD13FE060282ED0702847
:100E80000BD0B0F5805F03D0B0F5005F2FD110E03C
:100E90002068816821F0070115E0CB68D1E90121C4
:100EA000206800F011FC2168886840F077008860B5
:100EB0001DE0CB68D1E90121206800F005FC206825
:100EC000816841F48041816011E01EE0CA68496890
:100ED000206800F00BFC5021206806E0CA684968D1
:100EE000206800F014FC6021206800F0F7FB84F813
:100EF0003D50002084F83C0070BDCA6849682068F5
:100F000000F0F4FB40212068EFE700212068ECE7C7
:100F100010212068E9E720212068E6E730212068D9
:100F2000E3E7704770B50446006801694FF00005BB
:100F3000C943890715D4C168C943890711D4E91E7B
:100F4000016101202077206880698007204602D057
:100F5000FFF7E7FF04E000F098F8204600F096F86D
:100F6000257720680169C943490717D4C168C94377
:100F7000490713D46FF00401016102202077206833
:100F8000806910F4407F204602D0FFF7CAFF04E0DA
:100F900000F07BF8204600F079F825772068016999
:100FA000C943090716D4C168C943090712D46FF0B1
:100FB00008010161042020772068C069800720466D
:100FC00002D0FFF7AEFF04E000F05FF8204600F02B
:100FD0005DF8257720680169C943C90617D4C1683F
:100FE000C943C90613D46FF01001016108202077AE
:100FF0002068C06910F4407F204602D0FFF791FFBF
:1010000004E000F042F8204600F040F82577206820
:101010000169C943C90708D1C168C943C90704D1D7
:10102000891E0161204600F032F820680169C94339
:10103000090609D4C168C943090605D46FF08001C7
:1010400001612046FFF785FE20680169C943490612
:1010500009D4C168C943490605D46FF04001016154
:10106000204600F015F820680169C94389060BD4B1
:10107000C168C943890607D46FF020010161204689
:10108000BDE87040FFF766BE70BD7047704770479F
:10109000704710B504460068416994F83920C1F3DF
:1010A000C011212A0BD151B1416921F08001416168
:1010B000206B08B1FFF77AF8204600F098FB206813
:1010C000416994F83A20C1F38011222A0BD151B121
:1010D000416921F040014161606B08B1FFF766F89A
:1010E000204600F076FB002010BD704770B5026806
:1010F00004461068D168536910F00F0F51D003F007
:10110000010501F4907635435DD0C20705D0CA05CC
:1011100003D5E26B42F00102E263420705D5DA072C
:1011200003D0E26B42F00202E263820705D5DA07E0
:1011300003D0E26B42F00402E263020705D5DA074E
:1011400003D0E26B42F00802E263E26B002A34D083
:10115000800604D5880602D5204600F051FB2068A1
:101160004069E16BC0F3801001F0080101432046A3
:1011700024D000F02EFB2068416949061AD5416948
:1011800021F040014161606BA0B11B494163606B7C
:10119000FFF724F8002810D0606B416BBDE8704069
:1011A000084783060FD58B060DD52046BDE8704055
:1011B00000F026BB2046FFF798FF70BDFFF795FFB4
:1011C0000020E06370BD030606D50B0604D520465B
:1011D000BDE8704000F018BC4006F3D54806F1D5D4
:1011E000D168204621F04001D160202184F83910D7
:1011F00000F055F970BD00003317000870B5040009
:1012000004D094F83900002510B106E0012070BD2B
:1012100084F83850204600F023F8242084F8390060
:101220002068C16821F40051C160204600F034FB01
:101230002068016921F4904101612068416921F031
:101240002A0141612068C16841F40051C160E56331
:10125000202084F8390084F83A00002070BD000096
:10126000F0B5064600682B4985B088424FD12A4820
:10127000816941F4804181618069284D00F480409A
:1012800004904FF40070009002200190032003901E
:1012900069462846FFF702F900242815CDE9000425
:1012A000694628460294FFF7F9F81E4D1C4880272E
:1012B00001C5102091C51B4845F810496C61AC610F
:1012C000EC61FFF781F818B1A72117A000F027FC07
:1012D00035636E6212481B4D1430C5E90004C5E940
:1012E00002472C616C61AC612846EC61FFF76CF839
:1012F00018B1B7210CA000F012FC75630022114652
:1013000025206E62FFF746FA2520FFF737FA05B071
:10131000F0BD00000038014000100240000801400C
:1013200044000240980000202E2E2F5372632F732A
:10133000746D3332663178785F68616C5F6D73709D
:101340002E630000DC000020F8B5044690F83A0057
:1013500020283CD1C1B3BAB394F83800012836D064
:10136000012084F83800A162A2850025E5632220CF
:1013700084F83A00636B17489862636B1648D8622A
:10138000636B16481863606B134645630846666BCB
:10139000216802463046091DFFF748F820680168B9
:1013A0004168009184F83850C16841F48071C1608F
:1013B0002068416941F0010141612068416941F0C3
:1013C000400141610020F8BDFFE70120FBE702205A
:1013D000F9E700008D170008C91700084317000837
:1013E000704770472DE9F843044690F839001F46CE
:1013F00016460D46202850D1A5B19EB194F838006C
:1014000001284AD0012084F838004FF00008C4F8C1
:101410003C80212084F83900FFF728F9A684814612
:10142000E68426E00120BDE8F883E08C401EE084DD
:10143000A0684B46B0F5805F4FF000024FF080018E
:101440002046009703D000F010FBE8B90DE000F053
:101450000CFBC8B928882168C0F3080048602069DF
:1014600008B16D1C05E0AD1C03E0216815F8010B07
:101470004860E08C0028D8D14B460022402120460D
:10148000009700F0F2FA08B10320CCE7202084F89E
:10149000390084F838800020C5E70220C3E7704790
:1014A000FEE7000030B5174885B0816941F01001B2
:1014B0008161816901F010010491816941F020018D
:1014C0008161816901F020010491816941F0040189
:1014D000816180690C4D00F004004FF400540490C9
:1014E000002221462846FFF7BBF80120CDE9004045
:1014F000002002900220039069462846FEF7CEFFA6
:1015000005B030BD001002400010014010B5154874
:1015100086B01349016041F61F410024C0E901145F
:1015200041F28731C0E903148021C0E90541FFF78A
:101530003AFC00B1FEE74FF480500090694609483C
:10154000FFF776FC00B1FEE7049404A90548059472
:10155000FFF701FC002800D0FEE706B010BD000038
:10156000002C014018000020FEE770470907090E13
:10157000002806DA00F00F0000F1E02080F8141DCA
:10158000704700F1E02080F8001470477047704702
:1015900010B5FFF771F8BDE81040FFF7D6BB30B5C6
:1015A0008FB001210804CDE9001000240294022527
:1015B0000491CDE907504FF4E01009906846FFF719
:1015C00021FA00B1FEE70F20CDE90A054FF4806053
:1015D000CDE90C4002210AA80E94FFF70DF900B1E5
:1015E000FEE7FFF7B3F94FF47A71B0FBF1F0FFF7C4
:1015F00098FB0420FFF788FB00221146501EFFF7DE
:10160000C9F80FB030BD00000D48016841F001017C
:10161000016041680B4A1140416001680A4A11406B
:101620000160016821F480210160416821F4FE011C
:1016300041604FF41F0181600449C0030860704796
:10164000001002400000FFF8FFFFF6FE08ED00E08A
:101650000148FFF767BC000018000020F0B50268E1
:10166000164B174C174D4FF08047984205D0B842A3
:1016700003D0A04201D0A84203D122F070064A68EC
:101680003243984205D0B84203D0A04201D0A842CC
:1016900003D122F44074CA68224322F080044A69CC
:1016A000224302608A68C2620A688262984201D15B
:1016B0000969016301214161F0BD0000002C014076
:1016C000000400400008004010B5846842EA03228C
:1016D00024F47F440A432243826010BD826822F0D2
:1016E00070020A4342F007018160704710B5036A37
:1016F000046A24F001040462846924F0F00444EADA
:10170000021423F00A020A438461026210BD10B57C
:10171000036A23F0100303628369046A23F47043AD
:1017200043EA023224F0A00343EA0111826101621C
:1017300010BD10B5406A0021C185C184FFF7D5FCFA
:1017400010BD70B5446A2068406994F83910C0F340
:10175000C0100025212904D118B1E584204600F0ED
:1017600046F82068406994F83A10C0F380102229A6
:1017700004D118B1E585204600F02BF8E06B40F06D
:101780001000E0632046FFF7B0FC70BD10B50146C5
:10179000406A09680968890613D40021C185016877
:1017A000CA6822F48072CA6001684A6922F00102A4
:1017B0004A6101684A6922F040024A61202180F8AA
:1017C0003A10FFF70DFE10BD10B5406AFFF709FE95
:1017D00010BD0168CA6822F49072CA6001684A6943
:1017E00022F001024A61202180F83A107047016816
:1017F000CA6822F0C002CA60202180F83910704700
:1018000010B590F83A10222901D0022010BD81684D
:10181000B1F5805F11D00169002901681FD04968C6
:1018200001F07F03816A4A1C82620B70C18D491EE0
:101830000904090CC18518D02BE00269816A002ACD
:101840000268526805D0D2B20A80816A491C81625E
:10185000ECE7C2F308020A80816A891CF7E74A684C
:10186000816A4B1C83620A70E0E70168CA6822F053
:101870002002CA600168CA6822F48072CA600168E6
:101880004A6922F001024A61202180F83A10FFF7EC
:10189000A7FD002010BD00002DE9F04104460068BE
:1018A0000169E26821F44051114301612169A06896
:1018B0000843616908432168CA6841F20C639A438E
:1018C0000243CA6020684169A26921F44071114352
:1018D00041614C4920686425322688423CD1FFF79B
:1018E0004BF800EBC00101EB001061688900B0FB10
:1018F000F1F7FFF741F800EBC00101EB0010616860
:10190000B0468900B0FBF1F0B0FBF5F06FF01801C4
:10191000484307EB800106EB0110B0FBF5F000F047
:10192000F006FFF729F800EBC00101EB0010616839
:101930008900B0FBF1F0B0FBF5F006EB0016FFF705
:101940001BF800EBC00101EB001061688900B0FBDF
:10195000F1F7FFF711F83BE0FEF7FEFF00EBC001E7
:1019600001EB001061688900B0FBF1F7FEF7F4FFAE
:1019700000EBC00101EB00106168B0468900B0FBCC
:10198000F1F0B0FBF5F06FF01801484307EB800170
:1019900006EB0110B0FBF5F000F0F006FEF7DCFFFF
:1019A00000EBC00101EB001061688900B0FBF1F0B1
:1019B000B0FBF5F006EB0016FEF7CEFF00EBC00122
:1019C00001EB001061688900B0FBF1F7FEF7C4FF7E
:1019D00000EBC00101EB001061688900B0FBF1F081
:1019E000B0FBF5F06FF01801484307EB800108EBFE
:1019F0000110B0FBF5F0216800F00F003044886062
:101A0000BDE8F0810038014090F83910212901D05B
:101A1000022070478168B1F5805F016A0BD04A1CD3
:101A20000262026809785160C18C491E0904090CE0
:101A3000C1840ED017E009880268C1F30801516023
:101A400001690029016A02D0491C0162ECE7891C86
:101A5000FBE70168CA6822F08002CA600068C168BA
:101A600041F04001C160002070472DE9F0419846E7
:101A700017460E460446069D1DE0681C1BD02DB17E
:101A8000FEF7F4FDA0EB0800A84214D92068C16855
:101A900021F4D071C1602068416921F001014161E8
:101AA000202084F8390084F83A00002084F83800B7
:101AB0000320BDE8F0812068006836EA000004D009
:101AC0000020B842D9D00020F3E70120F9E7000058
:101AD00008B50E48FFF70AFB0C4800680168C1F31F
:101AE0000011002911D00168416800910168406827
:101AF0000648FFF7CEFA0648006840680549C0F17D
:101B00006400088004490120087008BD58000020C6
:101B1000DC0000200200002000000020FEE7FEE7BD
:101B2000014A024900F013B8711B0008140000209C
:101B300002E008C8121F08C1002AFAD17047704796
:101B4000002001E001C1121F002AFBD170472DE9DE
:101B5000F04116460F460446002503E03946B047DB
:101B6000641C6D1C20780028F8D12846BDE8F0815F
:101B700013B54FF6FF73012269460248FFF732FCA6
:101B800000981CBD5800002008B5FEF77DFDFFF74A
:101B900006FDFFF787FC2A48416941F001014161D8
:101BA0004069002200F00100009011460E20FEF76F
:101BB000F1FD0E20FEF7E2FD002211460F20FEF798
:101BC000E9FD0F20FEF7DAFDFFF7A0FC1E4C1D48D3
:101BD000002520604FF4E130C4E901050C20E560E8
:101BE000C4E90450A5612046E561FFF707FB00B199
:101BF000FEE72068C16841F01001C160642213490A
:101C00001148FFF7A1FB10484038FFF705F910A075
:101C1000FFF786FF114C124EDFF848804FF4005753
:101C200020780128FCD1358025700FA10748FEF7E8
:101C300079FA0028F4D139464046FEF70DFDEFE76A
:101C40000010024000380140580000202001002010
:101C5000696E6974206F6B200D0A0000000000207F
:101C600002000020001001404C454400000000002C
:101C7000000000000102030406070809000000003C
:101C800001020304A41C000800000020180000004A
:101C9000301B0008BC1C0008180000207005000064
:101CA000401B0008000000000100000010000000C0
:0C1CB0000000000000A24A040000000038
:04000005080000ED02
:00000001FF
